:100000000C945D000C9485000C9485000C94850084
:100010000C9485000C9485000C9485000C9485004C
:100020000C9485000C9485000C9485000C9485003C
:100030000C9485000C9479050C9485000C94850033
:100040000C942F050C9485000C9485000C9485006D
:100050000C9485000C9485000C9485000C9485000C
:100060000C9405040C948500000000002400270077
:100070002A0000000000250028002B0004040404CE
:100080000404040402020202020203030303030342
:10009000010204081020408001020408102001021F
:1000A00004081020000000080002010000030407FB
:1000B0000000000000000000A00511241FBECFEFCB
:1000C000D8E0DEBFCDBF11E0A0E0B1E0EEE3F3E1A8
:1000D00002C005900D92AA33B107D9F721E0AAE337
:1000E000B1E001C01D92AA3FB207E1F710E0CDE5F3
:1000F000D0E004C02197FE010E94EF07CC35D10764
:10010000C9F70E94C1050C949D090C94000085ED6F
:100110008093BC008091BC0084FDFCCF1092BB0199
:10012000089540919701262F30E0240F311D213290
:100130003105DCF42091BB012430C9F4FC0180E0DE
:1001400090E0861758F4309197012191DC01A9586D
:10015000BE4FA30FB11D2C930196F3CF8091970151
:10016000680F6093970180E0089581E0089582E030
:10017000089508958FEF9FEF08958FEF9FEF0895F3
:100180008091760190E09195819591090895CF92A3
:10019000DF92EF92FF920F931F93CF93DF937C0137
:1001A000CB018A0120917501222389F0EB016B01BB
:1001B000C40ED51ECC15DD0569F06991D701ED910E
:1001C000FC910190F081E02DC7010995F3CF642FD8
:1001D0000E949100C801DF91CF911F910F91FF9074
:1001E000EF90DF90CF900895CF93DF931F92CDB71C
:1001F000DEB76983209175012223D1F0209174012B
:10020000203240F021E030E0FC013383228380E0A3
:1002100090E015C080917301E82FF0E0ED5AFE4F99
:10022000998190838F5F809373018093740105C0DF
:1002300061E0CE0101960E94910081E090E00F9074
:10024000DF91CF91089590E0FC01EC55FF4F249190
:10025000FC01E057FF4F3491FC01E458FF4FE4915B
:10026000EE2309F43CC0222339F1233091F038F415
:100270002130A9F0223001F584B58F7D12C02730DE
:1002800091F02830A1F02430B9F4809180008F7D66
:1002900003C0809180008F77809380000DC084B56B
:1002A0008F7784BD09C08091B0008F7703C08091A3
:1002B000B0008F7D8093B000F0E0EE0FFF1FEE588E
:1002C000FF4FA591B4919FB7F894611104C08C9130
:1002D0003095382302C0EC913E2B3C939FBF08958C
:1002E000CF93DF9390E0FC01E057FF4F2491FC0196
:1002F000E458FF4F8491882361F190E0880F991FA3
:10030000FC01E859FF4FC591D491FC01EE58FF4F15
:10031000A591B491611109C09FB7F8948881209587
:1003200082238883EC912E230BC0623061F49FB747
:10033000F8948881322F309583238883EC912E2B7B
:100340002C939FBF06C08FB7F894E8812E2B28838B
:100350008FBFDF91CF9108958E3008F08E50877057
:10036000806480937C0080917A00806480937A001E
:1003700080917A0086FDFCCF8091780020917900F1
:1003800090E0922B08953FB7F89480914F0190919F
:100390005001A0915101B091520126B5A89B05C012
:1003A0002F3F19F00196A11DB11D3FBFBA2FA92FF4
:1003B000982F8827820F911DA11DB11DBC01CD0171
:1003C00042E0660F771F881F991F4A95D1F708955D
:1003D0008F929F92AF92BF92CF92DF92EF92FF9255
:1003E0006B017C010E94C3014B015C01C114D1046B
:1003F000E104F104F1F00E94C301DC01CB01881992
:100400009909AA09BB09883E9340A105B10570F37B
:1004100021E0C21AD108E108F10888EE880E83E0D5
:10042000981EA11CB11CC114D104E104F10419F7F8
:10043000DDCFFF90EF90DF90CF90BF90AF909F9077
:100440008F900895CF92DF92EF92FF920F931F93B8
:10045000CF93DF936C017A018B01C0E0D0E0CE1521
:10046000DF0581F0D8016D918D01D601ED91FC91F0
:100470000190F081E02DC6010995892B11F021969C
:10048000EECF7E01C701DF91CF911F910F91FF90B9
:10049000EF90DF90CF900895CF93FC01C48121E0CD
:1004A00020937501C0933A01109273011092740168
:1004B0008485682B81EE91E00E94F4009091740194
:1004C000913208F045C08091BB018111FCCF82E0E0
:1004D0008093BB0181E08093BD018FEF8093BA01CF
:1004E0001092DF019093DE01A3E5B1E0EEEBF1E0C5
:1004F00080E0981721F02D9121938F5FFACF109211
:10050000E0018091E001CC0FC82BC093E001809105
:10051000BC01813061F41092BC018091E0018093B4
:10052000BB008091BC0083FDF8CF85EC01C085EE57
:100530008093BC008091BB018230E1F38091BA01CD
:100540008F3F31F08091BA01803211F08091BA0171
:10055000109273011092740110927501CF91089559
:100560000F931F93CF938C01C62F0E944C026C2FC8
:100570006460C8010E944C026C2F6B7FC8010E940E
:100580004C0283EC90E00197F1F7CF911F910F910E
:1005900008950F931F93CF93DF938C01C62FD42F11
:1005A000607F642B0E94B00280E1C89FB0011124DB
:1005B0006D2BC801DF91CF911F910F910C94B00268
:1005C000CF93DF93CDB7DEB728970FB6F894DEBF91
:1005D0000FBECDBF98E0E0E0F1E0DE0111960190A2
:1005E0000D929A95E1F79091F501981710F48FEF1D
:1005F000890FFE013196E80FF11DE80FF11D6081B2
:10060000606840E08DEE91E028960FB6F894DEBF6A
:100610000FBECDBFDF91CF910C94C90240E061E0E5
:100620008DEE91E00E94C9028BE39FE10197F1F703
:100630008091F601882319F080E00C94E00208957F
:1006400041E00E94C90281E090E00895089580E0B1
:1006500090E008958EE00E94AC01BC01990F880BD8
:10066000990B0E949F0820E030E040EA50E40E948D
:100670002B0920E030EC4FE754E40E94F5072AE014
:1006800037ED43E25CE30E94F5070E946E08609339
:100690004301862F90E0A0E0B0E09C01AD012D5217
:1006A000310941095109ADEAB2E00E94B3072EE1D8
:1006B00030E040E050E00E949407DA01C9018E5A10
:1006C0009E4FAF4FBF4F823521E0920714F482E571
:1006D00091E090934501809344018FE00E94AC012A
:1006E000BC01990F880B990B0E949F0820E030E015
:1006F00040EA50E40E942B0920E030EC4FE754E43C
:100700000E94F50720E030E040EA51E40E942B0906
:100710000E94670870934101609340018FE00E943E
:10072000AC01BC01990F880B990B0E949F0820E037
:1007300030E040EA50E40E942B0920E030EC4FE723
:1007400054E40E94F5072AE939E94CE453E40E9495
:100750002B090E946708709349016093480108952E
:10076000009769F0FC0101900020E9F73197AF0193
:10077000481B590BBC018DEE91E00C94220280E0E5
:1007800090E008958F929F92AF92BF920F931F9324
:10079000CF93DF93CDB7DEB7A1970FB6F894DEBF46
:1007A0000FBECDBF19A2423008F44AE08E010F5DA2
:1007B0001F4F842E912CA12CB12CA50194010E94D5
:1007C000BE07E62FB901CA0101501109EA3014F43D
:1007D000E05D01C0E95CD801EC93232B242B252B91
:1007E00061F7C8010E94B003A1960FB6F894DEBF6E
:1007F0000FBECDBFDF91CF911F910F91BF90AF90F2
:100800009F908F9008950E9498091F920F920FB6A3
:100810000F9211242F933F934F935F936F937F9386
:100820008F939F93AF93BF93EF93FF938091B90002
:10083000887F803609F49CC068F5883209F45BC073
:1008400090F4803109F454C038F4882309F4F2C0DC
:10085000883009F44DC0F2C0883109F44CC08032B0
:1008600009F45DC0EBC0803409F468C048F48033FB
:1008700009F455C0883309F0E1C08093BA01D4C0AF
:10088000803509F44FC0883509F45DC0883409F01B
:10089000D5C0D2C0883909F4C3C0A8F4883709F498
:1008A00067C038F4883609F463C0803709F460C043
:1008B000C5C0883809F4B4C0803909F45FC08038F5
:1008C00009F0BCC05BC0803B09F484C038F4803AB6
:1008D00009F466C0883A09F47DC0B0C0803C09F4D0
:1008E000A3C0883C09F4A0C0883B09F486C0A6C018
:1008F0008091E00110C09091DF018091DE01981796
:1009000070F5E091DF0181E08E0F8093DF01F0E070
:10091000E254FE4F80818093BB0085EC82C08093BF
:10092000BA018AC0E091DF0181E08E0F8093DF0180
:100930008091BB00F0E0E254FE4F80839091DF0194
:100940008091DE016AC0E091DF0181E08E0F80932B
:10095000DF018091BB00F0E0E254FE4F8083809184
:10096000BD01811169C081E08093BC0184EA5DC052
:1009700083E08093BB011092B901CFCF8091B90180
:10098000803208F04DC0E091B90181E08E0F809374
:10099000B9018091BB00F0E0E756FE4F8083BDCFE8
:1009A00085EC8093BC001092BB018091B90180322C
:1009B00030F4E091B901F0E0E756FE4F108260910B
:1009C000B90170E089E991E0E0E0F0E0099510926A
:1009D000B90134C084E08093BB0110929801109259
:1009E0009701E0E0F0E0099580919701811105C041
:1009F00081E08093970110927701E091980181E066
:100A00008E0F80939801F0E0E958FE4F808180932B
:100A1000BB009091980180919701981708F47DCFC1
:100A200085E88093BC000AC085EC8093BC001092DE
:100A3000BB0104C01092BA010E948700FF91EF91A0
:100A4000BF91AF919F918F917F916F915F914F91E6
:100A50003F912F910F900FBE0F901F9018951F92EE
:100A60000F920FB60F9211242F933F938F939F9362
:100A7000AF93BF9380914B0190914C01A0914D0198
:100A8000B0914E0130914A0123E0230F2D3720F41D
:100A90000196A11DB11D05C026E8230F0296A11DD8
:100AA000B11D20934A0180934B0190934C01A09378
:100AB0004D01B0934E0180914F0190915001A09152
:100AC0005101B09152010196A11DB11D80934F01BA
:100AD00090935001A0935101B0935201BF91AF91F7
:100AE0009F918F913F912F910F900FBE0F901F906C
:100AF00018951F920F920FB60F9211242F933F93C8
:100B00004F935F936F937F938F939F93AF93BF9315
:100B1000EF93FF93E0913B01F0913C010995FF9128
:100B2000EF91BF91AF919F918F917F916F915F9165
:100B30004F913F912F910F900FBE0F901F901895DE
:100B4000E1EEF1E01382128288EE93E0A0E0B0E0E3
:100B500084839583A683B7838CE091E0918380831F
:100B6000EDEEF1E0138212828EE191E091838083B9
:100B7000118680E2848380E1828782E08387148605
:100B80000895789484B5826084BD84B5816084BD05
:100B900085B5826085BD85B5816085BD80916E001B
:100BA000816080936E00109281008091810082604C
:100BB0008093810080918100816080938100809189
:100BC00080008160809380008091B1008460809378
:100BD000B1008091B00081608093B00080917A0074
:100BE000846080937A0080917A00826080937A009A
:100BF00080917A00816080937A0080917A00806889
:100C000080937A001092C10061E08DE00E94700133
:100C100061E08DE00E94230161E087E00E947001A5
:100C200061E08CE00E94700161E088E00E94700148
:100C300061E08AE00E94700161E089E00E94700139
:100C400060E08FE00E94700160E08EE00E94700121
:100C500060E082E00E94700180E180938100109248
:100C6000800081E080933D0120EB34E03093470128
:100C700020934601309387002093860091E1909362
:100C800081002AE233E030933C0120933B018093C2
:100C90006F008091F20188608093F20112E010935E
:100CA000F50162E370E080E090E00E94E80160916D
:100CB000F9018DEE91E00E944C0268EE73E080E055
:100CC00090E00E94E80160E38DEE91E00E94B002A6
:100CD000CBE4D6E4CE010197F1F760E38DEE91E02D
:100CE0000E94B0022197F1F760E38DEE91E00E943F
:100CF000B00283E592E00197F1F760E28DEE91E0BA
:100D00000E94B0026091F201606240E08DEE91E0DD
:100D10000E94C90284E08093F30140E06CE08DEE14
:100D200091E00E94C9020E940E031093F40140E07A
:100D300066E08DEE91E00E94C90240E062E08DEE37
:100D400091E00E94C9028BE39FE10197F1F761E016
:100D50008AE00E9470018091800080628093800010
:100D60008091460190914701A0E0B0E0B695A7952B
:100D70009795879590938B0080938A0080913D0191
:100D800080618093810061E089E00E947001809120
:100D90008000806880938000809146019091470197
:100DA000A0E0B0E0B695A7959795879590938900B8
:100DB0008093880080913D01806180938100C0E034
:100DC000D0E0909143018091420198130CC0209192
:100DD00040013091410180913E0190913F012817DF
:100DE000390709F44EC00E940E0380E00E94E00221
:100DF00086E291E00E94B0036091430170E080E0E0
:100E000090E04AE00E94C2038DE291E00E94B003AC
:100E10008FE291E00E94B00381E00E94E00281E352
:100E200091E00E94B003C0904001D09041010D2C90
:100E3000000CEE08FF08F7FE0FC041E06DE28DEEFA
:100E400091E00E94C90266277727CB016C197D09C2
:100E50008E099F094AE003C04AE0C701B6010E941B
:100E6000C20387E391E00E94B00380914301809325
:100E70004201809140019091410190933F01809304
:100E80003E01A0914801B091490140914601509125
:100E900047019A010E94E007DC01CB014AE0B695C8
:100EA000A795979587954A95D1F790938B00809356
:100EB0008A00A0914401B09145010E94E007DC0145
:100EC000CB015AE0B695A795979587955A95D1F796
:100ED0009093890080938800809143018C34F0F0D6
:100EE00060E087E00E94230161E08CE00E94230122
:100EF00060E08DE00E9423018091460190914701BE
:100F0000A0E0B0E02AE0B695A795979587952A9539
:100F1000D1F790938B0080938A00DACF209709F461
:100F200050CF0E9400004DCF052E97FB1EF4009479
:100F30000E94AB0757FD07D00E94BE0707FC03D0F5
:100F40004EF40C94AB0750954095309521953F4F4A
:100F50004F4F5F4F089590958095709561957F4FA5
:100F60008F4F9F4F08950E94E007A59F900DB49F5B
:100F7000900DA49F800D911D11240895A1E21A2EB9
:100F8000AA1BBB1BFD010DC0AA1FBB1FEE1FFF1F2D
:100F9000A217B307E407F50720F0A21BB30BE40B7D
:100FA000F50B661F771F881F991F1A9469F76095C4
:100FB0007095809590959B01AC01BD01CF0108957E
:100FC000A29FB001B39FC001A39F700D811D11248A
:100FD000911DB29F700D811D1124911D0895EE0F7A
:100FE000FF1F0590F491E02D09940E9409080C94CC
:100FF000F1080E94EA0858F00E94E30840F029F442
:101000005F3F29F00C94DA0851110C9425090C94D7
:10101000E0080E94020968F39923B1F3552391F384
:10102000951B550BBB27AA2762177307840738F057
:101030009F5F5F4F220F331F441FAA1FA9F335D0B4
:101040000E2E3AF0E0E832D091505040E695001C68
:10105000CAF72BD0FE2F29D0660F771F881FBB1F22
:10106000261737074807AB07B0E809F0BB0B802D00
:10107000BF01FF2793585F4F3AF09E3F510578F02C
:101080000C94DA080C9425095F3FE4F3983ED4F3FE
:10109000869577956795B795F7959F5FC9F7880F00
:1010A000911D9695879597F90895E1E0660F771F52
:1010B000881FBB1F621773078407BA0720F0621BE3
:1010C000730B840BBA0BEE1F88F7E09508950E940E
:1010D0006E086894B1110C94250908950E940A09BC
:1010E00088F09F5798F0B92F9927B751B0F0E1F0E9
:1010F000660F771F881F991F1AF0BA95C9F714C099
:10110000B13091F00E942409B1E008950C942409B3
:10111000672F782F8827B85F39F0B93FCCF38695D1
:1011200077956795B395D9F73EF49095809570952E
:1011300061957F4F8F4F9F4F0895E89409C097FBAB
:101140003EF490958095709561957F4F8F4F9F4F9E
:101150009923A9F0F92F96E9BB279395F6958795E2
:1011600077956795B795F111F8CFFAF4BB0F11F4A5
:1011700060FF1BC06F5F7F4F8F4F9F4F16C088234C
:1011800011F096E911C0772321F09EE8872F762F82
:1011900005C0662371F096E8862F70E060E02AF0C3
:1011A0009A95660F771F881FDAF7880F96958795AF
:1011B00097F9089597F99F6780E870E060E00895D7
:1011C0009FEF80EC089500240A941616170618065F
:1011D0000906089500240A9412161306140605063B
:1011E0000895092E0394000C11F4882352F0BB0FCC
:1011F00040F4BF2B11F460FF04C06F5F7F4F8F4F2F
:101200009F4F089557FD9058440F551F59F05F3F69
:1012100071F04795880F97FB991F61F09F3F79F018
:1012200087950895121613061406551FF2CF46959A
:10123000F1DF08C0161617061806991FF1CF86951C
:101240007105610508940895E894BB276627772700
:10125000CB0197F908950E943E090C94F1080E9471
:10126000E30838F00E94EA0820F0952311F00C946E
:10127000DA080C94E00811240C9425090E94020954
:1012800070F3959FC1F3950F50E0551F629FF001D9
:10129000729FBB27F00DB11D639FAA27F00DB11DF2
:1012A000AA1F649F6627B00DA11D661F829F22277B
:1012B000B00DA11D621F739FB00DA11D621F839F02
:1012C000A00D611D221F749F3327A00D611D231FD8
:1012D000849F600D211D822F762F6A2F11249F5726
:1012E00050409AF0F1F088234AF0EE0FFF1FBB1F29
:1012F000661F771F881F91505040A9F79E3F5105E8
:1013000080F00C94DA080C9425095F3FE4F3983ED2
:10131000D4F3869577956795B795F795E7959F5F91
:10132000C1F7FE2B880F911D9695879597F9089523
:0E13300081E090E0F8940C949D09F894FFCFB2
:10133E00000040001400540000000000F400C7003C
:10134E002703B900C000BD00BA0000000000200352
:10135E0022022703260354656D703A2000DF0043F6
:0A136E0000506F743A2000250000C3
:00000001FF
